{
  "contractName": "Voting",
  "abi": [
    {
      "inputs": [
        {
          "internalType": "string[]",
          "name": "_candidates",
          "type": "string[]"
        }
      ],
      "stateMutability": "nonpayable",
      "type": "constructor"
    },
    {
      "inputs": [
        {
          "internalType": "uint256",
          "name": "",
          "type": "uint256"
        }
      ],
      "name": "candidates",
      "outputs": [
        {
          "internalType": "string",
          "name": "",
          "type": "string"
        }
      ],
      "stateMutability": "view",
      "type": "function"
    },
    {
      "inputs": [],
      "name": "owner",
      "outputs": [
        {
          "internalType": "address",
          "name": "",
          "type": "address"
        }
      ],
      "stateMutability": "view",
      "type": "function"
    },
    {
      "inputs": [
        {
          "internalType": "address",
          "name": "",
          "type": "address"
        }
      ],
      "name": "voters",
      "outputs": [
        {
          "internalType": "bool",
          "name": "",
          "type": "bool"
        }
      ],
      "stateMutability": "view",
      "type": "function"
    },
    {
      "inputs": [
        {
          "internalType": "string",
          "name": "",
          "type": "string"
        }
      ],
      "name": "votesReceived",
      "outputs": [
        {
          "internalType": "uint256",
          "name": "",
          "type": "uint256"
        }
      ],
      "stateMutability": "view",
      "type": "function"
    },
    {
      "inputs": [
        {
          "internalType": "string",
          "name": "candidate",
          "type": "string"
        }
      ],
      "name": "addCandidate",
      "outputs": [],
      "stateMutability": "nonpayable",
      "type": "function"
    },
    {
      "inputs": [
        {
          "internalType": "uint256",
          "name": "candidateIndex",
          "type": "uint256"
        }
      ],
      "name": "castVote",
      "outputs": [],
      "stateMutability": "nonpayable",
      "type": "function"
    },
    {
      "inputs": [
        {
          "internalType": "string",
          "name": "candidate",
          "type": "string"
        }
      ],
      "name": "getCandidateVotes",
      "outputs": [
        {
          "internalType": "uint256",
          "name": "",
          "type": "uint256"
        }
      ],
      "stateMutability": "view",
      "type": "function"
    },
    {
      "inputs": [
        {
          "internalType": "address",
          "name": "voter",
          "type": "address"
        }
      ],
      "name": "hasVoted",
      "outputs": [
        {
          "internalType": "bool",
          "name": "",
          "type": "bool"
        }
      ],
      "stateMutability": "view",
      "type": "function"
    }
  ],
  "bytecode": "0x60806040523480156200001157600080fd5b506040516200133038038062001330833981810160405281019062000037919062000369565b336000806101000a81548173ffffffffffffffffffffffffffffffffffffffff021916908373ffffffffffffffffffffffffffffffffffffffff16021790555080600190805190602001906200008f92919062000097565b505062000572565b828054828255906000526020600020908101928215620000eb579160200282015b82811115620000ea578251829080519060200190620000d9929190620000fe565b5091602001919060010190620000b8565b5b509050620000fa91906200018f565b5090565b8280546200010c906200047e565b90600052602060002090601f0160209004810192826200013057600085556200017c565b82601f106200014b57805160ff19168380011785556200017c565b828001600101855582156200017c579182015b828111156200017b5782518255916020019190600101906200015e565b5b5090506200018b9190620001b7565b5090565b5b80821115620001b35760008181620001a99190620001d6565b5060010162000190565b5090565b5b80821115620001d2576000816000905550600101620001b8565b5090565b508054620001e4906200047e565b6000825580601f10620001f8575062000219565b601f016020900490600052602060002090810190620002189190620001b7565b5b50565b6000620002336200022d84620003e3565b620003ba565b905080838252602082019050828560208602820111156200025957620002586200054d565b5b60005b85811015620002ae57815167ffffffffffffffff81111562000283576200028262000548565b5b80860162000292898262000336565b855260208501945060208401935050506001810190506200025c565b5050509392505050565b6000620002cf620002c98462000412565b620003ba565b905082815260208101848484011115620002ee57620002ed62000552565b5b620002fb84828562000448565b509392505050565b600082601f8301126200031b576200031a62000548565b5b81516200032d8482602086016200021c565b91505092915050565b600082601f8301126200034e576200034d62000548565b5b815162000360848260208601620002b8565b91505092915050565b6000602082840312156200038257620003816200055c565b5b600082015167ffffffffffffffff811115620003a357620003a262000557565b5b620003b18482850162000303565b91505092915050565b6000620003c6620003d9565b9050620003d48282620004b4565b919050565b6000604051905090565b600067ffffffffffffffff82111562000401576200040062000519565b5b602082029050602081019050919050565b600067ffffffffffffffff82111562000430576200042f62000519565b5b6200043b8262000561565b9050602081019050919050565b60005b83811015620004685780820151818401526020810190506200044b565b8381111562000478576000848401525b50505050565b600060028204905060018216806200049757607f821691505b60208210811415620004ae57620004ad620004ea565b5b50919050565b620004bf8262000561565b810181811067ffffffffffffffff82111715620004e157620004e062000519565b5b80604052505050565b7f4e487b7100000000000000000000000000000000000000000000000000000000600052602260045260246000fd5b7f4e487b7100000000000000000000000000000000000000000000000000000000600052604160045260246000fd5b600080fd5b600080fd5b600080fd5b600080fd5b600080fd5b6000601f19601f8301169050919050565b610dae80620005826000396000f3fe608060405234801561001057600080fd5b50600436106100885760003560e01c80638d4b44d91161005b5780638d4b44d9146101255780638da5cb5b14610155578063a3ec138d14610173578063e962414f146101a357610088565b806309eef43e1461008d5780633477ee2e146100bd5780633eb76b9c146100ed578063462e91ec14610109575b600080fd5b6100a760048036038101906100a29190610788565b6101d3565b6040516100b4919061095d565b60405180910390f35b6100d760048036038101906100d291906107fe565b610229565b6040516100e49190610978565b60405180910390f35b610107600480360381019061010291906107fe565b6102d5565b005b610123600480360381019061011e91906107b5565b6104e4565b005b61013f600480360381019061013a91906107b5565b6105b1565b60405161014c91906109fa565b60405180910390f35b61015d6105df565b60405161016a9190610942565b60405180910390f35b61018d60048036038101906101889190610788565b610603565b60405161019a919061095d565b60405180910390f35b6101bd60048036038101906101b891906107b5565b610623565b6040516101ca91906109fa565b60405180910390f35b6000600260008373ffffffffffffffffffffffffffffffffffffffff1673ffffffffffffffffffffffffffffffffffffffff16815260200190815260200160002060009054906101000a900460ff169050919050565b6001818154811061023957600080fd5b90600052602060002001600091509050805461025490610b1c565b80601f016020809104026020016040519081016040528092919081815260200182805461028090610b1c565b80156102cd5780601f106102a2576101008083540402835291602001916102cd565b820191906000526020600020905b8154815290600101906020018083116102b057829003601f168201915b505050505081565b600180549050811061031c576040517f08c379a0000000000000000000000000000000000000000000000000000000008152600401610313906109ba565b60405180910390fd5b600260003373ffffffffffffffffffffffffffffffffffffffff1673ffffffffffffffffffffffffffffffffffffffff16815260200190815260200160002060009054906101000a900460ff16156103a9576040517f08c379a00000000000000000000000000000000000000000000000000000000081526004016103a0906109da565b60405180910390fd5b6000600182815481106103bf576103be610c26565b5b9060005260206000200180546103d490610b1c565b80601f016020809104026020016040519081016040528092919081815260200182805461040090610b1c565b801561044d5780601f106104225761010080835404028352916020019161044d565b820191906000526020600020905b81548152906001019060200180831161043057829003601f168201915b50505050509050600381604051610464919061092b565b9081526020016040518091039020600081548092919061048390610b7f565b91905055506001600260003373ffffffffffffffffffffffffffffffffffffffff1673ffffffffffffffffffffffffffffffffffffffff16815260200190815260200160002060006101000a81548160ff0219169083151502179055505050565b60008054906101000a900473ffffffffffffffffffffffffffffffffffffffff1673ffffffffffffffffffffffffffffffffffffffff163373ffffffffffffffffffffffffffffffffffffffff1614610572576040517f08c379a00000000000000000000000000000000000000000000000000000000081526004016105699061099a565b60405180910390fd5b6001819080600181540180825580915050600190039060005260206000200160009091909190915090805190602001906105ad92919061064b565b5050565b6003818051602081018201805184825260208301602085012081835280955050505050506000915090505481565b60008054906101000a900473ffffffffffffffffffffffffffffffffffffffff1681565b60026020528060005260406000206000915054906101000a900460ff1681565b6000600382604051610635919061092b565b9081526020016040518091039020549050919050565b82805461065790610b1c565b90600052602060002090601f01602090048101928261067957600085556106c0565b82601f1061069257805160ff19168380011785556106c0565b828001600101855582156106c0579182015b828111156106bf5782518255916020019190600101906106a4565b5b5090506106cd91906106d1565b5090565b5b808211156106ea5760008160009055506001016106d2565b5090565b60006107016106fc84610a3a565b610a15565b90508281526020810184848401111561071d5761071c610c89565b5b610728848285610ada565b509392505050565b60008135905061073f81610d4a565b92915050565b600082601f83011261075a57610759610c84565b5b813561076a8482602086016106ee565b91505092915050565b60008135905061078281610d61565b92915050565b60006020828403121561079e5761079d610c93565b5b60006107ac84828501610730565b91505092915050565b6000602082840312156107cb576107ca610c93565b5b600082013567ffffffffffffffff8111156107e9576107e8610c8e565b5b6107f584828501610745565b91505092915050565b60006020828403121561081457610813610c93565b5b600061082284828501610773565b91505092915050565b61083481610a92565b82525050565b61084381610aa4565b82525050565b600061085482610a6b565b61085e8185610a76565b935061086e818560208601610ae9565b61087781610c98565b840191505092915050565b600061088d82610a6b565b6108978185610a87565b93506108a7818560208601610ae9565b80840191505092915050565b60006108c0602683610a76565b91506108cb82610ca9565b604082019050919050565b60006108e3601783610a76565b91506108ee82610cf8565b602082019050919050565b6000610906601683610a76565b915061091182610d21565b602082019050919050565b61092581610ad0565b82525050565b60006109378284610882565b915081905092915050565b6000602082019050610957600083018461082b565b92915050565b6000602082019050610972600083018461083a565b92915050565b600060208201905081810360008301526109928184610849565b905092915050565b600060208201905081810360008301526109b3816108b3565b9050919050565b600060208201905081810360008301526109d3816108d6565b9050919050565b600060208201905081810360008301526109f3816108f9565b9050919050565b6000602082019050610a0f600083018461091c565b92915050565b6000610a1f610a30565b9050610a2b8282610b4e565b919050565b6000604051905090565b600067ffffffffffffffff821115610a5557610a54610c55565b5b610a5e82610c98565b9050602081019050919050565b600081519050919050565b600082825260208201905092915050565b600081905092915050565b6000610a9d82610ab0565b9050919050565b60008115159050919050565b600073ffffffffffffffffffffffffffffffffffffffff82169050919050565b6000819050919050565b82818337600083830152505050565b60005b83811015610b07578082015181840152602081019050610aec565b83811115610b16576000848401525b50505050565b60006002820490506001821680610b3457607f821691505b60208210811415610b4857610b47610bf7565b5b50919050565b610b5782610c98565b810181811067ffffffffffffffff82111715610b7657610b75610c55565b5b80604052505050565b6000610b8a82610ad0565b91507fffffffffffffffffffffffffffffffffffffffffffffffffffffffffffffffff821415610bbd57610bbc610bc8565b5b600182019050919050565b7f4e487b7100000000000000000000000000000000000000000000000000000000600052601160045260246000fd5b7f4e487b7100000000000000000000000000000000000000000000000000000000600052602260045260246000fd5b7f4e487b7100000000000000000000000000000000000000000000000000000000600052603260045260246000fd5b7f4e487b7100000000000000000000000000000000000000000000000000000000600052604160045260246000fd5b600080fd5b600080fd5b600080fd5b600080fd5b6000601f19601f8301169050919050565b7f4f6e6c7920746865206f776e65722063616e20706572666f726d20746869732060008201527f616374696f6e0000000000000000000000000000000000000000000000000000602082015250565b7f496e76616c69642063616e64696461746520696e646578000000000000000000600082015250565b7f596f75206861766520616c726561647920766f74656400000000000000000000600082015250565b610d5381610a92565b8114610d5e57600080fd5b50565b610d6a81610ad0565b8114610d7557600080fd5b5056fea2646970667358221220a1564da140381e3532428df4d45c7a94ca2742c63c3336c8b837bb3d6a07f16a64736f6c63430008070033",
  "immutableReferences": {},
  "source": "// SPDX-License-Identifier: MIT\r\npragma solidity ^0.8.0;\r\n\r\ncontract Voting {\r\n    address public owner;\r\n    string[] public candidates;\r\n    mapping(address => bool) public voters;\r\n    mapping(string => uint256) public votesReceived;\r\n\r\n    modifier onlyOwner() {\r\n        require(msg.sender == owner, \"Only the owner can perform this action\");\r\n        _;\r\n    }\r\n\r\n    constructor(string[] memory _candidates) {\r\n        owner = msg.sender;\r\n        candidates = _candidates;\r\n    }\r\n\r\n    function addCandidate(string memory candidate) public onlyOwner {\r\n        candidates.push(candidate);\r\n    }\r\n\r\n    function castVote(uint256 candidateIndex) public {\r\n        require(candidateIndex < candidates.length, \"Invalid candidate index\");\r\n        require(!voters[msg.sender], \"You have already voted\");\r\n        \r\n        // Update the vote count for the candidate\r\n        string memory candidateName = candidates[candidateIndex];\r\n        votesReceived[candidateName]++;\r\n        \r\n        // Mark the voter as voted\r\n        voters[msg.sender] = true;\r\n    }\r\n\r\n    function getCandidateVotes(string memory candidate) public view returns (uint256) {\r\n        return votesReceived[candidate];\r\n    }\r\n\r\n    function hasVoted(address voter) public view returns (bool) {\r\n        return voters[voter];\r\n    }\r\n}\r\n\r\n",
  "sourcePath": "C:\\Users\\clint\\decentrilised-voting-internship\\contracts\\Voting.sol",
  "compiler": {
    "name": "solc",
    "version": "0.8.7+commit.e28d00a7.Emscripten.clang"
  },
  "schemaVersion": "3.4.14",
  "updatedAt": "2023-08-14T06:46:38.102Z",
  "devdoc": {
    "kind": "dev",
    "methods": {},
    "version": 1
  },
  "userdoc": {
    "kind": "user",
    "methods": {},
    "version": 1
  }
}